:1000000010350020D1980000CD980000CD98000058
:1000100000000000000000000000000000000000E0
:10002000000000000000000000000000CD9800006B
:100030000000000000000000CD980000CD980000F6
:10004000CD980000CD980000CD980000B93F000089
:10005000A1780000CD980000CD9800002991000003
:10006000CD980000415B0000515B0000615B000027
:10007000715B0000815B0000915B0000CD98000087
:10008000CD980000CD980000CD980000CD980000DC
:10009000CD9800000000000000000000CD98000096
:1000A000CD980000CD98000015B10000CD9800005B
:1000B0000000000010B5064C2378002B07D1054B3B
:1000C000002B02D0044800E000BF0123237010BDC4
:1000D000D003002000000000E8D90000084B10B554
:1000E000002B03D00749084800E000BF0748036819
:1000F000002B00D110BD064B002BFBD09847F9E731
:1001000000000000D4030020E8D90000E8D9000076
:100110000000000010B504211F24E02283680B4278
:10012000FCD14379A34305D0402B05D0202BF5D13A
:100130000271F3E74023437110BD10B504211F2461
:10014000E02283680B42FCD14379A34305D0202BE6
:1001500005D0402BF5D10271F3E72023437110BD88
:10016000F7B51A4B05009847194E01AC7388194F23
:10017000AB4208D2257002222D0A2100582065705A
:10018000B847154B9847154BB2881B889A4208D23E
:10019000237002221B0A21005A206370B8470E4BBD
:1001A0009847F388022201339BB2F3802370210029
:1001B0001B0A5C206370B847074B98470122084B25
:1001C0001A70084B06321A70F7BDC046F170000075
:1001D00080130020894C0000514B0000DA090020F8
:1001E000600D002065130020F0B5AF4EBDB0307833
:1001F0000138062800D955E10CF0A8FB0700710072
:100200005702140454016D024F05A849A84A0B680F
:1002100010681B1AA7480068834223D90B68A64DB3
:100220001360A64B1C78002C43D000241C706B4636
:100230006A461C70FF236946012053709470A847DA
:1002400001A903200C704C708C70A84702A90220F1
:100250000C704C708C70A84703A90C704C708C709B
:100260000420A847964B1A78002A00D11AE10024EE
:100270001C70944B984708A98F4D01200C704C704E
:100280008C70A84709A902200C704C708C70A8478C
:100290000AA903200C704C708C70A8470BA904208D
:1002A0000C704C708C70A847874B1C700323337004
:1002B000F8E0012704A903201F700C704C708C70AB
:1002C000A84705A938000C704C708C70A84706A987
:1002D00002200C704C708C70A84707A9BDE77A4BC0
:1002E0001878032800D9DDE00CF030FB040058003A
:1002F00094008301754B1D78002D4FD16B496C4ADA
:100300000B6810681B1A6B480068834220D90B6881
:10031000694F1360694B1C78002C62D01D70FF235D
:100320000CA901204B700D708D70B8470DA90320EA
:100330000D704D708D70B8470EA902200D704D7074
:100340008D70B8470FA90D704D708D700420B8479F
:100350005B4B1A78002A21D000241C70594B984717
:1003600014A9554D01200C704C708C70A84715A92C
:1003700002200C704C708C70A84716A903200C70DA
:100380004C708C70A84717A904200C704C708C70AE
:10039000A84701234C4A1370DB18337001224C4BE1
:1003A00004251A70414B002418684A4B98476D4247
:1003B000494B9847494B184002D501382843013032
:1003C000474B0130E0540134802CF1D10023454AE1
:1003D0001370454A1370454A1360454A137002234F
:1003E0005EE0012510A903201D700C704C708C700C
:1003F000B84711A928000C704C708C70B84712A92E
:1004000002200C704C708C70B84713A90C704C70A3
:100410008C709BE72E4B1C78002C43D1234A334928
:100420001368086883423DD9314B2E4D1E78002E4B
:1004300029D01C702F4B12681B681F4E9B180B6035
:10044000012018A90C704C708C70B04719A90220BB
:100450000C704C708C70B0471AA903200C704C7053
:100460008C70B0471BA904200C704C708C70B04786
:100470000122214B1A70214B1868214B98472B7889
:1004800001332B700EE001201870174B28781C7870
:10049000A0423BD91B4B12681E701B4B1A600323F2
:1004A000094A13703DB0F0BD65130020580B0020C1
:1004B0000C0400204401002001510000ED03002045
:1004C000390B00206D700000EE030020600D00204D
:1004D000290D0020B5CD000011CE000003000080E2
:1004E0001005002092050020900500200404002043
:1004F000380100204001002060030020540E00203D
:100500001501000091050020F4030020AD4B092CDB
:1005100068D9DC241C60AC4C12681B68205C9B18FA
:100520000B60012812D1FF2300261CA94B70A74B9A
:100530000E708E709847A64BA64F1E703868A64B5B
:100540009847DB2231003800A44B98472B78E05CB9
:10055000022813D1FF2300261DA90B709B4B4E7060
:100560008E7098479A4B9B4F1E7038689A4B9847ED
:1005700026223100FF323800984B98472B78E65CF2
:10058000032E15D1002732009549964B1EA8984797
:100590001EA930008D4B98478D4B8E4E1F703068D2
:1005A0008D4B9847B4223900520030008B4B98474E
:1005B0002B781FA9E05C042800D073E70024FF23F8
:1005C0000C704C708B70814B9847824D804B286823
:1005D0001C70814B9847B4222100FF3228007F4BCA
:1005E00098475FE7042C02D9A024640092E7D22444
:1005F000FBE77D497D4C0B6822689B1A7C4A93423D
:1006000017D901227B4B7C491A7000230B707B4960
:10061000921808787A4932700988814200D341E7FC
:100620003BA908704B705620764B9847764B9847FD
:1006300038E70022754B1878904201D01A700132C9
:10064000734B1878002802D000221A700232714BC6
:100650001878002802D000221A7003326E4B1878E6
:1006600000281ED000221A7004326C48564D0378C0
:10067000ED5C9542C5D10A6801332260684ADBB25D
:1006800003701078984200D00CE7FF231370FA2211
:100690000B6892009B18634A1360584A1378013321
:1006A0009CE6002A00D1FDE6DFE7534D2C78012CB3
:1006B00043D0002C11D0022C00D0F3E64A4C4B4919
:1006C00023680A689B1A4A4A934200D830E14B4B90
:1006D0001878554B98470123E9E5544B1A78002ABE
:1006E00000D1DFE61C70404B1868514B9847514FC2
:1006F000B847514B66001988504B9847504B013111
:10070000F152B8474F4B184004D5042301385B42DF
:10071000184301302C4B013018550134802CE6D1A0
:1007200000233F4A1370354A13703E4A1360464A0D
:100730001370464A01331370A3E6444B1E78002E13
:1007400000D0AFE6284937480B680268934200D8CA
:10075000A8E63D4B324F1A78002A24D01E703C4B3D
:100760000A681B6820A99B180360184D20000E70B2
:100770004E708E70A84721A902200E704E708E70A8
:10078000A84722A903200E704E708E70A84723A997
:1007900004200E704E708E70A8470D4B1C703B7875
:1007A00001333B707EE61C70144C3B782478A342E6
:1007B00052D91A4B09681A700C4B1960254B1A70E4
:1007C00002235EE600040020100500200151000015
:1007D00060030020540E00203B010000AD440000E7
:1007E000F4CF000091CD0000580B0020F40300204E
:1007F000B80B0000600D0020EE03002090050020E3
:1008000080130020894C0000514B0000390B002060
:100810003A0B00203B0B00203C0B002091050020F0
:10082000920500200404002061010000EC03002078
:10083000B5CD000011CE0000DA09002041CC000047
:10084000100400200300008038010020290D002042
:1008500040010020F2030020CE4A092C62D99624E0
:100860006400146009681268CB4CCC4D5218E15CEE
:100870005B000260585BCA4B98473B785A00525B5A
:10088000012A00D00EE6E05C012812D1FF230025EA
:1008900024A94B70C34B0D708D709847C24BC34E4B
:1008A0001D703068C24B9847DB2229003000C14BD5
:1008B00098473B78E05C022813D1FF23002525A947
:1008C0000B70B84B4D708D709847B74BB74E1D707D
:1008D0003068B74B984726222900FF323000B54BCD
:1008E00098473B78E55C032D15D100262A00B249D4
:1008F000B24B26A8984726A92800AA4B9847AA4B8E
:10090000AA4D1E702868AA4B9847B42231005200A5
:100910002800A84B98473B78E05C042800D0C1E54C
:1009200027A94BE6042C01D9C82499E7FA2497E7B4
:10093000A34B1A78002A27D000221A70A14A9748A0
:1009400013785F003F5AA048008887425FD19248E1
:10095000C75C9E480078874259D10133DBB21370DF
:1009600020689B4A0860117899420DD1FF231370CB
:10097000FA22236892009B18964A1360964A1378CD
:100980000133137001232B700022944B197891428C
:1009900001D01A700132924B1978002902D000223E
:1009A0001A7002328F4B1978002902D000221A7077
:1009B00003328D4B1978002930D000221A7004328E
:1009C0008048764903785D00695A012900D07EE6A7
:1009D000714DED5C954200D079E6844A256801337B
:1009E00015607B4ADBB203701078984200D059E55D
:1009F000FF231370FA22236892009B18754A136034
:100A0000754A137801331370794B19704AE5724BAC
:100A10001878784B984701233370B5E7002A00D146
:100A200040E5CDE7724D2F78012F2AD0002F24D03A
:100A3000022F00D107E10021684B1A788A4201D0C9
:100A400019700131664B1A78002A02D00022022167
:100A50001A70644B1A78002A02D0002203211A70FF
:100A6000614B1A78002A00D112E1002204211A7089
:100A7000614B1888614B984714E50123604A2B703D
:100A800013705F4B1C78002CD5D15E4B1E78002E66
:100A900000D1BBE01C704B4B4A4A1B7801331370EA
:100AA000494B1A88544B1B889A42C4D1474E307820
:100AB000012811D1FF2328A94B703A4B0C708C7080
:100AC0009847394B394F1C703868394B9847DB22AF
:100AD00021003800374B98473078022813D1FF2384
:100AE000002429A90B702F4B4C708C7098472E4B0B
:100AF0002E4F1C7038682E4B984726222100FF325B
:100B000038002C4B98473478032C15D1002722004D
:100B100029492A4B2AA898472AA92000214B9847FF
:100B2000214B224C1F702068214B9847B42239007A
:100B3000520020001F4B98473078042813D1FF2320
:100B400000242BA98B70174B0C704C709847164BD8
:100B5000164E1C703068164B9847B4222100FF32A5
:100B60003000144B9847DC220A4B1A60154A127861
:100B7000092A04D8042A0BD9A02252001A60224A5A
:100B80001B6812689B18134A136002232B7052E7EC
:100B9000D222F2E7000400201005002010040020FB
:100BA000957000000151000060030020540E0020E9
:100BB0003B010000AD440000F4CF000091CD0000E7
:100BC000F203002091050020F0030020EF03002035
:100BD000920500200404002090050020390B00201D
:100BE0003A0B00203B0B00203C0B0020F4030020BC
:100BF000EE03002061010000D8090020C970000048
:100C0000290D0020F3030020580B00202CA9474C8D
:100C100001200E704E708E70A0472DA902200E701C
:100C20004E708E70A0472EA903200E704E708E70ED
:100C3000A0472FA904200E704E708E70A04701228D
:100C40003B4B1A70F7E63B4B1A683B4B1B689A42CA
:100C500000D8F0E6002430A9344E01200C704C700E
:100C60008C70B04731A938000C704C708C70B04754
:100C700032A903200C704C708C70B04733A904204B
:100C80000C704C708C70B0470123294A13707DE7BB
:100C9000002901D1FFF706FCEAE62649274A0B683E
:100CA00010681B1A26480068834201D8FFF7FAFB38
:100CB0000B681E4D1360234B1C78002C1ED00024A3
:100CC000FF2634A901201C700C704E708C70A84750
:100CD00035A902200E704C708C70A84703221A4967
:100CE0001A4B36A8984736A90320A84737A90C7095
:100CF0004C708E700420A847FFF7D4FB012038A960
:100D000018700C704C708C70A84739A902200C70B8
:100D10004C708C70A8473AA903200C704C708C70F2
:100D2000A8473BA90C704C708C70E3E701510000A0
:100D300060030020580B002004040020F80300206A
:100D40003C01002039010020F4CF000091CD0000CB
:100D5000F8B5C04B1C78002C40D0BF4E307803282B
:100D600038D8BE4DBE4C0BF0F1FD8000AD01040043
:100D70001A002B6822689B1A142B00D8CBE0B94FBD
:100D8000B94B386898476422B84B0021380098471F
:100D900000222B682360B64B1A70032374E022688C
:100DA0002B689B1AAF225200934200D8B3E0002276
:100DB000AC4F1100AD4B38009847AE4B38689847A0
:100DC00001222B682360AA4B1A700023A14A3370BA
:100DD0001370A0E000239F4A137055E0A64B1A78C9
:100DE000002A30D09C4F3D78002D04D0012D14D026
:100DF000A14B1C7008E19E4B9A4C1D7020689A4BC9
:100E000098479622994B290020009847934B1A68DF
:100E1000934B1A6001233B707DE0904B904E1B6812
:100E200032689B1A642B76D9220021008F4B8D48A3
:100E300098478C4B18688F4B9847884B1B683360DA
:100E40008B4B1D70D4E78D4B1B78002B64D0824EEA
:100E5000307805285CD8814D814C0BF077FD060079
:100E60003301170058012B0040000022804B7D4FBA
:100E70001A7038687C4B984796227C4B00213800CA
:100E800098472B6823600123337044E02B68226865
:100E90009B1A142B3FD90022754B724F1A70386879
:100EA000714B98476422714B0021380098472B689A
:100EB000236072E72B6822689B1A142B2BD9694F89
:100EC000694B386898475A22684B00213800984788
:100ED00000222B682360664B1A700523D4E7226832
:100EE0002B689B1AAF225200934214D900225D4F07
:100EF00011005E4B380098475E4B386898470122D6
:100F00002B6823605A4B1A7000235C4A33705FE7EA
:100F10005A4B32701A70F8BD594A1478002C69D0B7
:100F20004D4E3078082800D956E74C4D4C4C0BF00C
:100F30000DFD0900C9001300EE0022001301370067
:100F40004C00990100224A4B464F1A703868464BB4
:100F50009847B422FF3290E72B6822689B1A142B23
:100F6000D9D90022424B3F4F1A7038683E4B984700
:100F7000B422520097E72B6822689B1A142BCAD917
:100F800000223B4B374F1A703868374B9847262260
:100F9000FF32364B0021380098472B6823609CE7CE
:100FA0002B6822689B1A142BB5D90022304B2D4F89
:100FB0001A7038682C4B9847DB222C4B00213800E4
:100FC00098472B68236007235EE72B6822689B1AEB
:100FD000C82BA0D90022234F1100244B380098477A
:100FE000244B3868984701222B682360204B1A70E5
:100FF000082349E7234B1B78002B45D0164F3D783B
:10100000002D03D0012D0AD03C7084E7184B154CFD
:101010001D702068144B9847E2229200F2E60F4BB5
:101020000F4E1B6832689B1AFA229200934200D836
:1010300071E7220021000D4B0A489847094B1868B8
:101040000C4B9847054B1B683360094B1D700D4BCB
:10105000CFE6C0468A0C002008040020580B002070
:10106000FC030020540E00203B010000AD440000B2
:101070006003002015010000890C0020280D0020CD
:10108000290D0020600D00207D4A1178002900D133
:1010900041E77C4E30780C2800D99DE67A4D7B4C98
:1010A0000BF040FC071026354B5A707F869CB2C867
:1010B000E0000022764B774F1A703868764B9847DD
:1010C000C822DAE62B6822689B1A642B00D822E734
:1010D0000022704F1100714B38009847704B3868F0
:1010E000984701222B682360694B1A700223CBE6D4
:1010F0002B6822689B1A142B00D80CE70022644B43
:10110000644F1A703868644B9847C822CBE62B6846
:1011100022689B1A642B00D8FDE600225D4F110067
:101120005E4B380098475E4B3868984701222B6821
:101130002360574B1A700423A6E62B6822689B1A7B
:10114000142B00D8E7E60022514B524F1A70386832
:10115000514B9847C8221CE72B6822689B1A642BC6
:1011600000D8D8E600224B4F11004C4B380098476E
:101170004B4B3868984701222B682360444B1A7008
:10118000062381E62B6822689B1A142B00D8C2E63E
:1011900000223F4B3F4F1A7038683F4B98476422FC
:1011A0000BE72B6822689B1AFA2B00D8B3E611E7ED
:1011B0002B6822689B1A142B00D8ACE60022344B13
:1011C000344F1A703868344B9847344B96220021BC
:1011D000380098472B682360092355E62B6822685E
:1011E0009B1A4B2B00D896E600222A4F11002B4B5E
:1011F000380098472A4B3868984701222B682360AB
:10120000234B1A700A233FE62B6822689B1A142B83
:1012100000D880E600221E4B1E4F1A7038681E4B05
:1012200098471E4B64220021380098472B682360A2
:101230000B2329E622682B689B1AC822520093428E
:1012400000D868E60022134F1100144B380098476D
:10125000134B3868984701222B6823600C4B1A7097
:101260000C2311E621682B685B1AFA2149008B4296
:1012700000D850E62B68236000233370A8E5C046F1
:10128000880C002008040020580B0020FC030020DC
:1012900060030020540E00203B010000AD4400001C
:1012A00015010000F0B5304C89B0E72221002F4B2A
:1012B000812098476A462378009312782C4B1A7045
:1012C00001232C4A51791370069111790491D17838
:1012D0000391917802915278190001920022150031
:1012E00016001700059207940098834220DB002F18
:1012F00003D069461F4B09795970002E03D0694607
:101300001C4B097A9970002D03D06946194B097B53
:10131000D970059B002B03D06946164B097C1971C7
:10132000002A03D06A46134B127E5A7109B0F0BDF1
:101330000798C05CFB38042807D8DCB20BF0F2FA3F
:1013400003070A0D10000F0001940133CCE702944B
:101350000E00FAE703940D00F7E704940591F4E713
:1013600006940A00F1E7C046F6130020C94A0000BF
:1013700078130020E0140020F7B5019005285DD80F
:1013800001265D4B1B18013B1C785C4B01341C197A
:10139000594B019A9A5C594BE31A9A4200DCF7BD0B
:1013A00023786078F02B17D1554F564B3E709847F5
:1013B000554D564B2A681A602B689B1A092BFBD98E
:1013C000534B3E7098472A68504B1A602B689B1A03
:1013D000092BFBD90234DBE70028FBD0484F18006B
:1013E0004C4B3E709847484D484B2A681A602B6812
:1013F0009B1A092BFBD9484B60783E7098472A68A6
:10140000424B1A602B689B1A092BFBD9434B60781F
:101410003E7098472A683D4B1A602B689B1A092B2F
:10142000FBD93F4B20783E7098472A68374B1A60AB
:101430002B689B1A092BFBD93E70CBE72E4A01265D
:101440009446019B6344013B1C782C4B01341C19CE
:10145000344B1A78294BE31A9A42A0DD237860783E
:10146000F02B17D1264B1E70264B9847264D274F41
:101470002A683A602B689B1A092BFBD9204B1E70F7
:10148000234B98472A683A602B689B1A092BFBD993
:101490000234DDE70028FBD0194A18001D4B1670F6
:1014A0009847194D194F2A683A602B689B1A092BE7
:1014B000FBD9134B60781E70174B98472A683A6027
:1014C0002B689B1A092BFBD90D4B60781E70134BB0
:1014D00098472A683A602B689B1A092BFBD9084B5E
:1014E00020781E700E4B98472A683A602B689B1A2A
:1014F000092BFBD9CCE7C046E0140020F6130020EE
:10150000600B002095380000580B00209405002047
:10151000053900009937000039380000D537000040
:101520005D37000078130020002370B50400074DDC
:1015300007488B4202DB074B984770BDE25C5E5D5B
:10154000803A7240C2540133F3E7C04616D7000018
:10155000110E0020F5350000F7B5CD4C0C20A0474A
:101560000D20A0470A20A047CA4D1721CA48A84706
:101570000D20A0470A20A0471221C848A8470D20E7
:10158000A0470A20A0471321C548A8470D20A0471F
:101590000A20A0471321C348A8470D20A0470A20CE
:1015A000A0471321C048A8470D20A0470A20A04704
:1015B0000D20A0470A20A047BC4F12213800A847A1
:1015C0000D20A0470A20A0470D20A0470A20A047D1
:1015D0001721B748A8470D20A0470A20A0471D2182
:1015E000B448A847B44EB54B70880A22694698475C
:1015F00000236A46D25CD9B2002A03D00133082BFB
:10160000F7D119006846A8470D20A0470A20A04737
:101610001821AB48A8473378DB0702D50621A94833
:10162000A84733789B0702D50621A748A8473378F7
:101630005B0702D50821A548A847082133780B424B
:1016400001D0A348A8473378DB0602D50721A1487B
:10165000A84733789B0602D507219F48A8473378CF
:101660005B0602D506219D48A8470D20A0470A2009
:10167000A04733787E2B62D9B4219948A8470D2022
:10168000A0470A20A04712213800A847954B1221F5
:10169000954898470D20A0470A20A047212193484C
:1016A000A847864BB0880A226946984700236A46B5
:1016B000D25CD9B2002A03D00133082BF7D119002C
:1016C0006846A8470D20A0470A20A0477A4B9B8870
:1016D000132B34D959218648A8470D20A0470A204A
:1016E000A047844F12217148A8470F2182487D4EA0
:1016F000B0473B6ADB001ED50D20A0470A20A0475B
:1017000012216A48A84712217C48B0473B6A1B0156
:1017100011D40D20A0470A20A0470E217848B047D9
:10172000784B1B685B0706D40D20A0470A20A04712
:1017300013217548B0470D20A0470A20A047734EDB
:101740003388002B02D17388002B6ED00D20A04768
:101750000A20A04713216E48A8470D20A0470A2061
:10176000A0473388002B17D013216A48A847534B52
:1017700030880A226946984700236A46D25CD9B26B
:10178000002A03D00133082BF7D119006846A84777
:101790000D20A0470A20A0477388002B45D01F21A9
:1017A0005D48A84770880A226946444FB84700231D
:1017B0006A46D25CD9B2002A03D00133082BF7D194
:1017C00019006846A8470D20A0470A20A0472121FC
:1017D0005248A847F0880A226946B84700236A465B
:1017E000D25CD9B2002A03D00133082BF7D11900FB
:1017F0006846A8470D20A0470A20A047282148484E
:10180000A847B0880A226946B84700236A46D25CD6
:10181000D9B2002A03D00133082BF7D1190068464A
:10182000A8470D20A0470A20A0470D20A0470A2066
:10183000A0470C213B48A8470D20A0470A20A047FD
:1018400017213948A8470D20A0470A20A047132197
:101850003648A8470D20A0470A20A0471221344847
:10186000A8470D20A0470A20A0472F213148A847AC
:101870000D20A0470A20A04735212F48A8470D205A
:10188000A0470A20A04712212C48A847F7BDC04610
:1018900051350000F535000016D700004FD5000087
:1018A00061D5000074D5000087D5000061D7000025
:1018B00066D1000010D10000E614002089CD0000A0
:1018C0002DD1000069D8000070D8000076D8000043
:1018D0007FD8000088D8000090D8000098D8000079
:1018E00003D000002915000086D7000045D1000074
:1018F000B7D0000000440041B8D7000098D70000DE
:10190000AAD70000A044004173D700008013002034
:10191000E9D10000FCD100000FD200002ED200005F
:101920004FD2000043D50000D3D50000EAD5000017
:10193000FDD500000FD600003ED600002DD30000DC
:1019400070B518230F26084D0200DA40D4B2324099
:10195000AA5C083B4A701A0024092C5D0C70023105
:101960000832F1D170BDC04658D80000F0B5BF4B69
:1019700087B01F78002F68D0BD4B9847002864D0EF
:10198000BC4B9847BC4B040018680B285DD80AF084
:10199000DDFF0C0012005C016000A901DA01020207
:1019A000290283020D036C0311080D2C4DD1B34B9A
:1019B0009847012347E0312C49D1B14C0C20A04776
:1019C000B04D2421B048A8470D20A0470A20A047C9
:1019D0000D21AE48A8470D20A0470A20A047AC4FD4
:1019E0000D213800A8470D20A0470A20A0470D214F
:1019F000A848A8470D20A0470A20A047A64E0D21C1
:101A00003000A8470D20A0470A20A0470D2138002C
:101A1000A8470D20A0470A20A0470D219F48A847AE
:101A20000D20A0470A20A0470D213000A8470D2017
:101A3000A0470A20A0470D20A0470A20A047122156
:101A40009748A84704238C4A136007B0F0BD322C96
:101A500046D18B4C0C20A0478A4D24219148A847A1
:101A60000D20A0470A20A04715218848A8470D202F
:101A7000A0470A20A047864F16213800A8470D200E
:101A8000A0470A20A04716218248A8470D20A0475A
:101A90000A20A047804E16213000A8470D20A047FD
:101AA0000A20A04716213800A8470D20A0470A2089
:101AB000A04716217948A8470D20A0470A20A04733
:101AC00016213000A8470D20A0470A20A0470D206E
:101AD000A0470A20A04712217148A8470923B2E76E
:101AE000332C13D1664C0C20A0477521654D6E48F0
:101AF000A8470D20A0470A20A0470D20A0470A2094
:101B0000A04711216948A84702239CE7342C00D044
:101B100085E0674B10261868664B9847664B04A90A
:101B2000D868664B984700257642654B9847654BC9
:101B3000184002D5013830430130C0B203003033C1
:101B4000DBB2614C392B57D863550135202DECD1D0
:101B500004AB1B781A00613A052A50D9A37004AB74
:101B60005B781A00613A052A4BD9E37004AB9B7885
:101B70001A00613A052A46D9237204ABDB781A00B1
:101B8000613A052A41D9637204AB1B791A00613AA4
:101B9000052A3CD9237404AB5B791A00613A052A03
:101BA00037D9637404AB9B791A00613A052A32D99C
:101BB000A37404ABDB791A00613A052A2DD9E374CA
:101BC00031232F4D23750D2001336375A8470A205B
:101BD000A8476B212B4E3D48B0470D20A8470A204F
:101BE000A84720212000B0470D20A8470A20A84779
:101BF00012212B48B047DCE637306055A5E7203B83
:101C0000ACE7203BB1E7203BB6E7203BBBE7203BFE
:101C1000C0E7203BC5E7203BCAE7203BCFE7184D94
:101C2000184E0D20352C0AD1A8470A20A847232199
:101C30002748B0470022274B1A700B2303E7A84719
:101C40000A20A84721212448D4E7792C04D1234B2A
:101C50009847234B984703E06E2C01D000F09FFE7D
:101C60000123054A1360054B9847EEE6540B00200C
:101C7000493200006134000074070020591500004B
:101C800051350000F53500001FD500007FD400005D
:101C900094D40000AAD40000C0D40000D6D4000020
:101CA0002DD30000ECD40000A1D60000C7D700005F
:101CB000580B0020B5CD000068130020411900002A
:101CC00011CE00000F000080F10D0020B5D2000001
:101CD0007ED60000D00D00203FD300001D9E0000E6
:101CE000199F000020009E4EB0479E4D0123312CCD
:101CF0000CD00223322C09D00323332C06D000232E
:101D00002B60342C01D000F04AFE04332B602B688A
:101D1000002B01DC00F043FE0D20B0470A20B04745
:101D20002721914C9148A04728683030B0470D20BA
:101D3000B0470A20B0470B218D48A04700228D4BA9
:101D40001A6005237FE68B4D0D2C00D08EE02B68AA
:101D5000FF2B01DD00F023FE824A1268012A0ED11A
:101D6000854A13707E4C0D20A0470A20A0477E4B69
:101D70000D218248984700232B60063363E6022A30
:101D800001D17F4AEDE7032A01D17E4AE9E7042A1F
:101D9000E8D17D4AE5E7774D0D2C67D12B68FF2B05
:101DA00001DD00F0FCFD6F4A1268012A0ED1724A73
:101DB00053706B4C0D20A0470A20A0476A4B0C21A2
:101DC0007248984700232B6007333CE6022A01D172
:101DD0006B4AEDE7032A01D16A4AE9E7042AE8D110
:101DE000694AE5E7634D0D2C40D12B68FF2B01DDDF
:101DF00000F0D5FD5B4D286801282CD15E498B7021
:101E0000634B98472868022802D15D49604B984788
:101E10002868032802D15B495D4B9847286804284D
:101E200002D159495A4B98474D4C0D20A0470A20E2
:101E3000A0472A214C4E5748B04728683030A04769
:101E40003F20A0470D20A0470A20A047112152485B
:101E5000B0470823F7E54A4A022805D0494A032833
:101E600002D0494A0428CDD19370CBE77F2C08D10A
:101E70002868002800DCE8E50A21484B98472860DC
:101E8000E3E50A232A68200053432200303A9B18D6
:101E90002B60334B9847D8E5792C22D1314C2368FD
:101EA000012B04D10322344969203D4B9847236814
:101EB000022B04D1032232496C20394B9847226807
:101EC000032A03D12F496F20354B98472368042BF1
:101ED00004D103222C497220314B9847314B98474B
:101EE000BEE66E2C01D000F05AFD1E4C2368012B7B
:101EF00004D10322204969202B4B98472368022BE9
:101F000004D103221E496C20274B98472268032ADC
:101F100003D11C496F20244B98472368042B04D11C
:101F2000032219497220204B98472068012802D1CA
:101F30001149174B98472068022802D11049144BC9
:101F400098472068032802D10E49114B9847206812
:101F5000042800D084E60C490D4B984780E6C04623
:101F600051350000A0050020F5350000A7D1000084
:101F700073D600009C050020E413002020D300004D
:101F800079130020E8130020F0130020F7CF0000A1
:101F9000015100007DD10000C7D7000075CA0000C4
:101FA000894C0000514B0000C94A00002000B64D8A
:101FB000A8470022B54BB64E1A600123312C0ED033
:101FC0000223322C0BD00323332C08D00423342CCF
:101FD00005D00523352C02D0362C01D106233360E1
:101FE0003368002B01DC00F0DAFC0D20A8470A2042
:101FF000A847A84C1D21A848A04730683030A84702
:102000000D20A8470A20A8473A21A448A0470D2040
:10201000A8470A20A8472E21A148A0470D20A8477D
:102020000A20A8472D219F48A0470D20A8470A2035
:10203000A8473E219C48A0470D20A8470A20A84752
:102040002F219A48A0470D20A8470A20A8470F2112
:102050009748A04700231900964A1360964A99545E
:102060000133E62BFBD1DC3BEDE4874B20009847A6
:10207000904A13680D2C01D000F067FC00220B3C45
:10208000019311001300A4468B48019CA24228DB57
:102090008A4A12789918E62901DD00F048FC7C494B
:1020A000854C0968012900D06FE3FA20207084482C
:1020B0008B4200DB5FE35D1C824B83495B7893427C
:1020C00000DA5DE304AB19000122804E81201D700F
:1020D000B047AAB221008220B0477D4B98477D4B84
:1020E000B8E5845C5B2C00D02EE3541C055D632DA9
:1020F00012D18518AE78742E0CD1EE78722E09D1DB
:102100002D796C2D06D10532855C5D2D02D101241F
:1021100021431400621CB8E7612D0ED18518AE78FA
:102120006C2EF7D1ED78742DF4D10432855C5D2DE1
:10213000F0D1042421431400ECE7732D15D1851848
:10214000AE78682E00D080E0EE78692EE2D12E794C
:10215000662EDFD16D79742DDCD10632855C5D2D64
:10216000D8D1644621431400D4E7672D0ED18518D9
:10217000AE78752ECED1ED78692DCBD10432855C49
:102180005D2DC7D1082421431400C3E7702D1BD156
:102190008518AE786C2EBDD1EE78612EBAD12D792E
:1021A000792DB7D1551D465D5D2EB3D18218927938
:1021B0005B2AAFD0F021424A2C00D154D218E0392A
:1021C000517002330021A5E76E2D1CD18618B57819
:1021D000652D00D09FE2F578782D9BD135003679BA
:1021E000742E97D10532865C5D2E93D1AD795B2D2F
:1021F00090D0F0243249CC54C918EF3C4C700233D3
:102200001400002186E7622D66D18518AD78612D16
:1022100080D18518EE78632E00D07BE72E796B2E67
:1022200000D077E70532865C5D2E00D072E7AD798D
:102230005B2D00D16EE7F0242149CC546446C918C7
:102240004C7002331400002164E7742E00D061E763
:10225000EF782E006F2F00D05CE72D79702D00D025
:1022600058E70532855C5D2D00D053E7B5795B2DCD
:1022700000D14FE7F0241249CC54C918EC3C4C7003
:1022800002331400002145E751350000A00500206D
:1022900098050020F535000060D300007DD30000D4
:1022A000B7D30000E5D3000012D4000050D40000E2
:1022B00010D50000700700208A0600207813002047
:1022C000A4050020E0140020F6130020894C000033
:1022D000514B0000A5120000652D23D18518AE7862
:1022E0006A2E00D016E7EE78652E00D012E72E7920
:1022F000632E00D00EE76E79742E00D00AE7063206
:10230000865C5D2E00D105E7ED795B2D00D101E7FC
:10231000F024C149CC54C918E83C4C700233140075
:102320000021F7E66D2D1FD18518AE78752E00D0EF
:10233000F0E6EE78742E00D0ECE62E79652E00D013
:10234000E8E60532865C5D2E00D0E3E6AD795B2DD4
:1023500000D1DFE6F024B049CC54C918D03C4C7011
:10236000023314000021D5E6762D38D18518AE78D9
:102370006F2E00D0CEE6EE786C2E13D12E792B2E58
:1023800010D1561D875D5D2F0CD1AD795B2D09D025
:10239000F021A14A3400D154D218B039517002331F
:1023A0000021B7E69D4EB518EF786C2F00D0B1E64E
:1023B0002F792D2F00D0ADE60532B65C5D2E00D012
:1023C000A8E6AD795B2D00D1A4E6F0249249CC5467
:1023D000C918703C4C700233140000219AE6462D57
:1023E00000D097E68518AE78312E0DD1D61C875DCA
:1023F0005D2F00D089E0884A3400D1543A21D218A8
:1024000051700233002185E6322E0DD1D61C875D36
:102410005D2F00D028E1804A3400D1543B21D218EE
:1024200051700233002175E6332E0DD10332855CE5
:102430005D2D00D06EE6784CE1543C21E4186170CB
:1024400002331400002165E6342E0DD10332855C81
:102450005D2D00D05EE6704CE1543D21E4186170C2
:1024600002331400002155E6352E0DD10332855C70
:102470005D2D00D04EE6684CE1543E21E4186170B9
:1024800002331400002145E6362E0DD10332855C5F
:102490005D2D00D03EE6604CE1543F21E4186170B0
:1024A00002331400002135E6372E0DD10332855C4E
:1024B0005D2D00D02EE6584CE1544021E4186170A7
:1024C00002331400002125E6382E0DD10332855C3D
:1024D0005D2D00D01EE6504CE1544121E41861709E
:1024E00002331400002115E6392E00D012E6033223
:1024F000855C5D2D00D00DE6474CE1544221E41887
:10250000617002331400002104E6ED78302D0CD107
:10251000151D465D5D2E08D13F4A2C00D154432144
:10252000D218517002330021F4E58518ED78312D71
:102530000CD1151D465D5D2E08D1374A2C00D154B3
:102540004421D218517002330021E3E58518ED785B
:10255000322D0CD1151D465D5D2E08D12E4A2C0062
:10256000D1544521D218517002330021D2E585188B
:10257000ED78332D0CD1151D465D5D2E08D1264A10
:102580002C00D1546821D218517002330021C1E5CA
:102590008518ED78342D0CD1151D465D5D2E08D1C2
:1025A0001D4A2C00D1546921D218517002330021E8
:1025B000B0E58518ED78352D0CD1151D465D5D2EE5
:1025C00008D1154A2C00D1546A21D2185170023317
:1025D00000219FE58518ED78362D0CD1151D465D3F
:1025E0005D2E08D10C4A2C00D1546B21D2185170A9
:1025F000023300218EE58518ED78372D10D1151D99
:10260000465D5D2E0CD1044A2C00D1546C21D218A9
:102610005170023300217DE5A40500208A060020C8
:102620008518ED78382D0CD1151D465D5D2E08D12D
:10263000CE4A2C00D1546D21D218517002330021A2
:1026400068E58518ED78392D00D063E50432855CA6
:102650005D2D00D05EE5C54CE1546E21E41861703B
:1026600002331400002155E5ED78302D0CD1151DF5
:10267000465D5D2E08D1BD4A2C00D1546F21D21881
:1026800051700233002145E5B94DAE18F678312E70
:102690000CD1161DAF5D5D2F08D1B44A3400D15462
:1026A0007021D21851700233002133E5AE18F6784C
:1026B000322E0CD1161DAF5D5D2F08D1AB4A340010
:1026C000D1547121D21851700233002122E5AE1885
:1026D000F678332E0CD1161DAF5D5D2F08D1A34ABD
:1026E0003400D1547221D21851700233002111E507
:1026F000AE18F678342E00D00CE50432AD5C5D2DBA
:1027000000D007E5994CE1547321E418617002335D
:1027100014000021FEE46F2D00D0FBE48518EE7854
:102720006E2E00D0F6E42D79652D00D0F2E405324E
:10273000855C5D2D00D0EDE48C4CE1540021E41863
:10274000617002331400E5E48A4D2D5D874C6EB252
:10275000002E09DA66463143E154803DE418657085
:10276000023314000021D5E4E154E418657002330B
:1027700014000021CEE44D1E455D6554013197E4FF
:10278000C85C01336055013599E4022929D17A48A2
:102790007A4D0678AC4631004078A71B8D1B8142EC
:1027A00014DBFB211B18714F71486155691C99425C
:1027B00011DB714B714E9B78C91A6018CD1893428A
:1027C00000DB7FE4F55CC5540133F7E765466D5CDB
:1027D0007D540131E2E74E1B013EBE5D0E540131D6
:1027E000E5E7032929D16448644D0678AC463100F9
:1027F0008078A71B8D1B814214DBFC211B185B4FCB
:102800005B486155691C994211DB5B4B5B4EDB7881
:10281000C91A60185D18934200DB53E4F55CC55497
:102820000133F7E765466D5C7D540131E2E74E1BED
:10283000013EBE5D0E540131E5E7042929D14E4821
:102840004E4D0678AC463100C078A71B8D1B8142E7
:1028500014DBFD211B18454F45486155691C994201
:1028600011DB454B454E1B79C91A60185D18934220
:1028700000DB27E4F55CC5540133F7E765466D5C82
:102880007D540131E2E74E1B013EBE5D0E54013125
:10289000E5E705292AD13848384D0678AC4631009D
:1028A0000079A71B8D1B814215DBFE211B182F4FC2
:1028B0002F486155691C994212DB2F4B2F4E5B79D3
:1028C000C91A60185D18934201DBFFF7FBFBF55C4A
:1028D000C5540133F6E765466D5C7D540131E1E78F
:1028E0004E1B013EBE5D0E540131E4E70025062972
:1028F00001D0FFF7E7FB2049204F08784E7902000E
:10290000251A111AB2420EDBFF22184862544D1CE0
:102910009B199D4201DBFFF7D5FB6A1A013A825CE5
:1029200062550135F5E7B95CA9540132E9E7144C69
:102930000D20A0470A20A047124B23211248984798
:102940000022124B1A60FFF780F87F2C06D1002B73
:1029500001DCFFF77AF8013BFFF776F80449E52B35
:1029600016D8CC540133FFF76FF8C046A4050020F9
:102970008A060020D8D70000E0140020F6130020BB
:1029800051350000F53500003ED7000070070020EB
:10299000002313601A00CA540133E62BFBD1AE4C5E
:1029A0000D20A0470A20A0472121AC4BAC489847F6
:1029B000FFF74BF8202C01D1FFF747F82000A64D78
:1029C000A847A84B1A787F2C07D1002A01D1FFF71E
:1029D0003CF8013A1A70FFF738F81F2A03D8A249C9
:1029E0008C5401321A700D2C01D0FFF72EF81B7891
:1029F000202B00D09EE29C4E30790200303AD2B2B9
:102A0000092A01D93738C2B2737912071C00303C49
:102A1000E4B2092C01D9373BDCB223061343B27967
:102A200011003039C9B2092901D9373AD1B2F27946
:102A300009050B4311003039C9B2092901D9373AC8
:102A4000D1B20A041A43B37A18003038C0B2092848
:102A500001D9373BD8B2F37A000319003039C9B233
:102A60000243092901D9373BD9B209020B00B07BD7
:102A700013430200303AD2B2092A01D93738C2B220
:102A8000F07B12011A430300303BDBB2092B01D962
:102A90003738C3B2754C1343E2689446934211D160
:102AA0000D20A8470A20A847272171486B4CA04752
:102AB0000D20A8470A20A8471B216E48A0470023E5
:102AC000FEF7C1FF327D312A00D033E2727D322A17
:102AD00000D0E5E0684B00271868684B984704A9C8
:102AE000E068674B9847674B9847674B184004D599
:102AF000102301385B4218430130C0B20300303369
:102B0000DBB2624C392B00D99EE0E3550137202F10
:102B1000E9D1B378A370F378E370337A2372737AD0
:102B20006372337C2374737C6374B37CA374F37C0F
:102B3000E37404AB1B781A00613A2371052A01D8AB
:102B4000203B237104AB5B781A00613A6371052A5C
:102B500001D8203B637104AB9B781A00613AA371E2
:102B6000052A01D8203BA37104ABDB781A00613A37
:102B7000E371052A01D8203BE37104AB1B791A00ED
:102B8000613AA372052A01D8203BA37204AB5B799A
:102B90001A00613AE372052A01D8203BE37204ABC4
:102BA0009B791A00613AA373052A01D8203BA373CD
:102BB00004ABDB791A00613AE373052A01D8203BA4
:102BC000E37331231022237504A90233304F01200F
:102BD0006375B84730232F4E237604AB1B78102241
:102BE000307804A96376B847327804AB1B780F2A93
:102BF0002DD8302222776377244C237F1A00613A44
:102C0000052A01D8203B2377637F1A00613A052A01
:102C100001D8203B63770D20A8470A20A8473E2112
:102C20000E4E1D48B0470D20A8470A20A847202176
:102C30002000B0470D20A8470A20A8471B210D48B7
:102C4000B0470022154B7DE63730E0555EE723772D
:102C500004AB5B78CFE7C04651350000F535000086
:102C60003FD30000D00D0020F10D0020681300209C
:102C70009ED80000CED10000580B0020B5CD00003A
:102C80004119000011CE00000F000080D10D00207E
:102C900089CD0000E614002077D2000074070020E0
:102CA000332A00D046E1B27811003039C9B2B17090
:102CB000092901D9373AB270F278B4781000303867
:102CC000C0B22407F070092801D9373AF270327A7D
:102CD000F178100030380906C0B22143307209285B
:102CE00001D9373A3272327A12050192727A1000A3
:102CF0003038C0B27072092801D9373A7272707ACE
:102D000002040292327C10003038C0B230740928BC
:102D100001D9373A32748B48067C32030392427CE5
:102D20001400303CE4B24474092C01D9373A42749F
:102D3000827C467C1400303CE4B236028474092C58
:102D400001D9373A82747F4CE07CA27C0500303D8B
:102D5000EDB21201E574092D01D93738E074E07C39
:102D60000025014301980143029801430398014360
:102D70000E4316437449B44513D0744C0D20A0473C
:102D80000A20A0472821724E7248B0470D20A04764
:102D90000A20A0471B217048B047704B1D60FEF70A
:102DA00054FE4A59934200D100270435502DF8D1E2
:102DB000002F00D1AAE0002288184568043205607F
:102DC0004C2AF9D1CB640432654B06209847654BF9
:102DD00098475E4E0D20B0470A20B0471E215C4B3D
:102DE0006148984757490B7E1A00303AD2B20A76AA
:102DF000092A01D9373B0B76637E257E1A00303ACB
:102E00002D01D2B2EDB26276092A01D9373B637641
:102E1000637E564F1D433B782B4228D1002D0AD0AC
:102E20006B1E1D4207D10D20B0470A20B0471B2161
:102E30004F48474B98473B7804AA1D437B8804A919
:102E400001339BB27B8053701B0A15709370012075
:102E50000322434B3D709847424B98470D20B047A3
:102E60000A20B0471B213A4B3B489847E9E6227FAE
:102E700011003039C9B22177092901D9373A2277AF
:102E8000617F227F080030381201C0B2D2B2607771
:102E9000092801D9373961772A49497F0A437E2AAF
:102EA0001BD97E2B1BD80122134203D113432F4A77
:102EB0001370B8E702221342F8D004221342F5D06F
:102EC00008221342F2D010221342EFD020221342E4
:102ED000ECD040221342A6D1E8E77E2BABD9234A9F
:102EE00004A99388042001339BB2938004AA137031
:102EF0001B0A537002221A4B98471A4B98470D2011
:102F0000B0470A20B04711211A4892E70F4C0D2014
:102F1000A0470A20A04726210D4D1748A8470D209D
:102F2000A0470A20A0471B210B48A8470B4B1F6056
:102F3000FEF78BFD0D20A8470A20A84721210F4846
:102F4000B4E5C046F10D0020941300205135000077
:102F5000F5350000C5D80000CED100007407002070
:102F6000894C0000514B00009AD50000E614002067
:102F7000B8D500002DD70000EED800003FD30000E8
:102F800082B0EFF310835A425341019372B6BFF3FC
:102F90005F8F0022024B1A70019802B07047C04642
:102FA0005F030020024A1378013BDBB213707047C5
:102FB0008307002000207047002070477047000002
:102FC00010B5064A1378013BDBB213701078044B3E
:102FD000C0B298470022034B1A7010BD840700202E
:102FE000399D00007A070020002805D00122034BFC
:102FF0001A70BFF35F8F62B67047C0465F03002050
:103000000020A12210B50F4B0F4C207018800F4BE1
:103010001A70813A5A701E3ADA80E12298805880FC
:1030200018810B4B52021A600822187158719A715C
:10303000084B9847002803D023780133DBB2237074
:1030400010BDC0461208002083070020A4080020FD
:103050007C0700202D9D0000F7B5344B1B78002B1A
:1030600023D1334B9847334E334B3488002800D05C
:10307000324B9847844218D0314B9847314B324AF3
:103080001C780700E4B263009B5A002B16D12F4D29
:103090002B8801332B80264B9847002806D12B889C
:1030A000632B03D838002A4B9847F7BD204B98472D
:1030B000002803D0274B2A889A42F3D90022234BB9
:1030C0001A80254B1B78934229D1634263411D4AE4
:1030D000DBB213700123154A380013701C4B98475C
:1030E000194B6700DB5B1D00403D6A1E9541EDB248
:1030F000402B18D00E4B9847104B002800D10E4B98
:1031000098473080154AA40114190F4B144ADB5B11
:103110002900009281202200124CA047C5E762429C
:103120005441E4B2D6E700233380EBE7A008002047
:103130009D8600009E080020A1860000B186000048
:10314000812F00009C0800209808002078070020AC
:10315000E92F00001F0300001408002018080020B9
:10316000753100003189000010B5014B984710BD42
:103170005930000010B500280CD1074B1B785A427B
:103180005341064A5B009852054B1870054B187066
:10319000054B984710BDC0469C08002098080020A9
:1031A00014080020A008002059300000602110B54C
:1031B000144B1A7850B20A4000280DDA0020202A59
:1031C00012D15A78212A0FD1DA88072A0CD10E4958
:1031D0009A819960012007E00020202A04D15A78C2
:1031E000202A02D0222A06D010BDDA88072AFBD175
:1031F00006491961EBE701245988054B214098479E
:103200002000F1E7F01100207C070020BD2F000016
:10321000459D000070B5074B9847074B074A1D882E
:10322000074BADB21B785B009C5A064BA4B2984783
:10323000601B70BD812F00000E08002008080020D0
:103240000C080020E92F000010B50020014B984722
:1032500010BDC0461532000010B5034B9847431E01
:103260009841C0B210BDC04615320000F7B5164BEC
:1032700098471649164B0C781D78E4B2EDB2002D34
:1032800006D1144E144A630037889B5A9F4203D2DA
:10329000124B98470020FEBD3580634263410126F2
:1032A000DBB20B700A4BA4011E700C4B9847280030
:1032B0000B4B98470B4B0C4A0093121940233100DB
:1032C0000A4C0220A047E6E7812F00000C080020EE
:1032D000100800200E08002008080020E92F000038
:1032E000593200007933000088070020318900003E
:1032F00070B50024134B144D2C701C70134B1C70B4
:10330000134B1C70134B1C805C80134B1C80134BA5
:103310009847134B1C70134B1C70134B1C805C8024
:10332000124B1C80124B9847A04209D02B780133D6
:10333000DBB22B702B78DBB2012B01D10D4A13705D
:1033400070BDC046A008002084070020140800209B
:103350009C080020980800209E080020593000009A
:10336000100800200C080020080800200E0800208B
:103370006D3200007A07002013B503001000002B07
:103380000FD10D4A127854426241D2B2002909D1BC
:103390000A4B92019A180A4B01310093094C4023C1
:1033A000A04713BD084889B252001152074A137052
:1033B000074B9847F5E7C0460C0800208807002017
:1033C000793300003189000008080020100800202F
:1033D0006D320000F7B5194B00269B79093B5A4224
:1033E0005341DBB20093164B9847164B164F3C885F
:1033F0001D78164BEDB26A00D35AA4B29BB201936A
:10340000134B9847019B9C4207D3124B1B78DBB2AE
:10341000002BE8D11E003000FEBD0F4BAD015D1941
:103420002B5D01341E43A4B20C4B3C809847009B9B
:10343000002BF0D0002336020093D4E77C07002055
:10344000812F00000C0800200E0800200808002032
:10345000E92F00007A070020880700206D32000065
:1034600010B50020014B984710BDC046D533000071
:1034700070B50F4B98470F490F4A0B78DBB25C00D1
:10348000A45A402C0FD10D4A1278002A0BD10C4DB2
:103490002A78D2B2002A06D13F3C2C705C426341AC
:1034A0001400DBB20B70074B98474020001B70BD27
:1034B000812F00009C08002098080020A008002010
:1034C00014080020E92F000010B5034B9847431E55
:1034D0009841C0B210BDC04671340000F8B5144B1D
:1034E0000D009C79093C63425C41E4B20020114B21
:1034F0009847002805D1104B1878C0B20028F5D1A4
:10350000F8BD0E4B98470E4B0E4A1B78DBB25E009F
:10351000B15A9B014F1CB7520B4AD3185D540B4B49
:103520009847002C02D02D120024DFE70120E7E7A6
:103530007C070020C93400007A070020812F00009A
:103540009C0800209808002018080020E92F00009F
:1035500010B50100014B0020984710BDDD3400007C
:10356000F7B51B4B9B79092B00D152001400009139
:103570000020184B9847002805D1174B1B78002BCB
:10358000F6D12000FEBD154B9847154B01901D78D4
:10359000144BEDB26A00D75A40232600DB1B9C4235
:1035A00000D91E00AB011048DB19C0183200009989
:1035B0000E4B98470B4B6D00BF19EF5201980C4B07
:1035C0009847009BA41B9B190093002CD0D1D8E7EF
:1035D0007C070020C93400007A070020812F0000FA
:1035E0009C080020980800201808002091CD0000B9
:1035F000E92F000010B50A00024B01000020984797
:1036000010BDC0466135000082B0EFF310835A420E
:103610005341019372B6BFF35F8F0022024B1A70C1
:10362000019802B07047C0465F0300200020704739
:103630007047000070B50024084B094D1C70094B01
:1036400028001C70084B09221C702100074B98476A
:103650000120074B28701C7070BDC046B4080020C4
:10366000B5080020B0080020AE080020A3CD00005F
:10367000AF08002010B5034B034A0449044C054829
:10368000A04710BDB13600001C020020B008002089
:103690007D710000B4080020002805D00122034BF2
:1036A0001A70BFF35F8F62B67047C0465F03002099
:1036B000094B00205A88110A02290BD1D2B282424A
:1036C00008D1DA88012A05D1100004499A8199604D
:1036D000034919617047C046F0110020C00800205E
:1036E0003136000073B500240B4D2B78A34211D165
:1036F0000A4E09220A490B4B300098470A4B210019
:103700001C700A4B0A4C0093320009238420A04706
:1037100004002870200076BDAE080020C4080020F8
:10372000B508002091CD0000AF080020353700001B
:1037300031890000002210B5044B1A70044B1B782D
:10374000934201D0034B984710BDC046AE080020FD
:10375000AF080020E53600007047000070B5094B47
:1037600004009847084A05005378A3430124537086
:10377000064B1C70064B98472800064B98472000C4
:1037800070BDC04609360000B5080020AF08002013
:10379000E53600009936000070B50400084B9847E4
:1037A000084B05005A7814435C700124064B1C70CA
:1037B000064B98472800064B9847200070BDC0462E
:1037C00009360000B5080020AF080020E5360000EB
:1037D0009936000070B5134B050098470323040089
:1037E000114AD11C0878002804D120000F4B9847BB
:1037F000012070BDA84209D00133DBB20131092B91
:10380000F0D1F2E7D1184978D1540133D9B2072960
:10381000F8D9002313720122054B1A70054B984703
:10382000E3E7C04609360000B508002099360000DD
:10383000AF080020E536000070B5114B0400984732
:10384000032305000F4A995C00290ED0A14204D140
:1038500028000D4B9847012070BD0133092BF2D190
:103860002800094B98470020F6E7D4540124074B61
:103870001C70074B98472800034B98472000EBE744
:1038800009360000B508002099360000AF08002076
:10389000E5360000F0B5050085B0114B98470226CB
:1038A000104C114F65700025039032002100380044
:1038B0000E4B267098470E4B3A001D700D4B290099
:1038C0000093842033000C4EB0470C4BE570187009
:1038D0000123039823700A4B984705B0F0BDC046FA
:1038E00009360000B5080020C408002091CD000072
:1038F000AF0800203537000031890000AE080020F5
:1039000099360000F0B5114B85B098470226002586
:103910000F4C104F03903200210038000E4B2670E0
:10392000657098470D4B3A001D700D4B29000093B0
:10393000842033000B4EB0470B4BE5701870012309
:1039400003982370094B984705B0F0BD0936000075
:10395000B5080020C408002091CD0000AF08002069
:103960003537000031890000AE080020993600008C
:10397000024B187D012318407047C04600400041AB
:10398000042370B51C4A1D4DD16904000B43D3615B
:103990002023FF332B831A4B984703000520002B6D
:1039A00028D0C0221E21237892001B021340A27847
:1039B00052000A40802113436278C902D2011343A6
:1039C000E27892040A40C02113432279890212044A
:1039D0000A40082113436B60AB680A4A5B035B0F24
:1039E00099401180AB68538063781371288BC005B0
:1039F000C00F000170BDC0460004004000400041FF
:103A000071390000CE080020F7B5344A0D00538804
:103A1000118804004B43AB420BD28022304B920101
:103A2000EB18934205D92F4B2F4AEB1818209342DD
:103A300012D82E4F7B683E0001938023019ADB024F
:103A400013437B602023FF333B83294B9847002897
:103A500003D1019B05307B60FEBD1A2C05D016D822
:103A6000042C02D00DD8022C0DD1AD086D00F561EB
:103A70001A2C30D180237268DB02134373607368A1
:103A80000EE0062C20D9019B17207360E4E7412C3F
:103A900004D8402CE9D21C2CF5D1E6E7452CF2D80D
:103AA000A5231B0223433380114B98470028FBD0EA
:103AB000FD231A3C1C4203D173680E4A1340736005
:103AC000019B00207360C7E73B8BDB05CDD5019BD5
:103AD00010207B60C0E71C2CCCD0E1E7CE08002092
:103AE00000C07FFF0000C0FFFF0700000040004152
:103AF00071390000FFFFFBFFF7B5294F0191150059
:103B00003B887A8804005A43824233D225492648AA
:103B10006118182281422BD8173A591E0092182298
:103B20000C4225D1013AAB4222D3204B98470522C3
:103B300000281DD01E4E1F4B33801C4B9847002879
:103B4000FBD02023FF333383002362085200681E1A
:103B5000AB4211D300223B79934209D13F2D07D8C4
:103B60000099154B914217D021001C209847020064
:103B70001000FEBD0022D0E70199C95C834205DB3D
:103B800089B2023311809BB20232E1E7019EF6183E
:103B9000767836023143F4E721000420E6E7C04698
:103BA000CE0800200000C0FFFF07000071390000B0
:103BB0000040004144A5FFFF093A0000F8B51A4B48
:103BC00016001A885B88050053430F00834205D214
:103BD0001649174869181823814216D8541E2C40DC
:103BE0001823002C11D1013BB2420ED3114B984740
:103BF0000523002809D020220F4BFF326D081A83BD
:103C00006D00711EA64202D800231800F8BD2B8853
:103C10009BB23B558C4202DA3A191B0A53700234AC
:103C2000A4B20235EEE7C046CE0800200000C0FF77
:103C3000FF0700007139000000400041F8B5214B3A
:103C400006001D885B886B43834207D21E4B1F4AC8
:103C5000F31818200127934201D9F8BD0027AD00C1
:103C6000013D35401820002DF7D1194B984703002E
:103C70000520002BF1D02023164CFF332383B308FB
:103C80005B00E361002F1BD001239E43802335801E
:103C90006268DB021343636063680F4B23800C4B45
:103CA00098470028FBD0002F03D063680B4A1340CD
:103CB00063601C23208B1840431E98418000CCE792
:103CC000074BEBE7CE0800200000C0FFFF07000015
:103CD00071390000004000411AA5FFFFFFFFFBFF04
:103CE00002A5FFFF202210B507240821124BFF3246
:103CF0001A839A68130C234099404280120D8281E6
:103D00000E4A017013881B092340A34209D10023E6
:103D10004360072312881A409A4207D10023836028
:103D200010BD0621C91A04238B40F1E79B1A042217
:103D30009A408260F4E7C0460040004100408000A5
:103D40000368987AC0097047082270B50500064BD1
:103D500004681A602800054B98470028FAD102230E
:103D600022881343238070BD00E100E0413D000044
:103D7000082270B50500084B0468DA672800074B75
:103D800098470028FAD1C1230222A3712372238805
:103D90009343238070BDC04604E100E0413D000034
:103DA00070B5084B0400056898470023A382E3829E
:103DB0002000054B98470028FAD101232A88134395
:103DC0002B8070BD713D0000413D000070B50600C4
:103DD0000C00056830000A4B98470028FAD1337967
:103DE000002B03D0012B09D12C6170BD054A17208F
:103DF0009442FAD8A4B22C821800F6E71720F4E710
:103E0000413D0000FFFF0000F8B507000E00140060
:103E1000056838000F4B98470028FAD13A79002AF4
:103E20000BD01A23012A06D11723012C03D8030033
:103E30000634A40066511800F8BD1723022CFAD8E6
:103E400005498E42F7D80C34B6B2640066531300AD
:103E5000F1E7C046413D0000FFFF00002023F7B519
:103E600016002F4A0160916904000B4393610223FD
:103E700001A90B7004202B4B984704202A4B98472C
:103E80002A4B20009847B378237133796371284B0C
:103E90001C60338825682B80B378002B24D0172032
:103EA000012B20D12B889BB22B80F378002B03D0E1
:103EB00080232A8813432B8020001E4B9847021E24
:103EC000FAD1B16820001C4B984700203379834217
:103ED00009D080236A88DB01134380226B806B88C2
:103EE000120213436B80FEBD04232A88172013435C
:103EF0002B80F378002BF6D120000E4B9847021E42
:103F0000FAD1B16820000C4FB8472000094B984700
:103F10000028FAD10122F1682000B847D5E7C04651
:103F2000000400402D7F0000A57E0000A13D0000A0
:103F3000280E0020413D0000093E000070B50379C5
:103F400004000D001520002B06D126682000034B2D
:103F500098470028FAD1B58270BDC046413D0000A7
:103F6000022A07D00379002B0FD0012B0FD1163373
:103F7000012A0DD8931C9B00195001239340818A7C
:103F80000B439BB28382002302E0022AF2D917235B
:103F90001800704710B502688023022903D001235E
:103FA00003248B402340D37101238B40C28A1343E7
:103FB0009BB2C38210BD000070B5114B1B68D98A3B
:103FC0001C689A8A207A0A40E179014048B20028A8
:103FD00006DA520701D51B6998478023237270BD0A
:103FE0000125294205D02A4201D09B6898472572B5
:103FF000F5E702252942F2D02A42F8D0DB68F5E73E
:10400000280E0020084A0300904209D0074A904237
:1040100008D0074A0020934201D10230C0B2704755
:104020000020FBE70120F9E70020004200240042C5
:1040300000280042F8B51F00164B160005000C00C2
:104040009847154B1A5C1723A24215D9134A8000D2
:104050008258B24210D3002F10D080235B02A340BD
:104060002A6B1342FCD180221203A240AB6813409A
:10407000FCD11C34A40066511800F8BD8022520007
:10408000A240AB681340FCD11034A4002C19666028
:10409000F2E7C0460540000024D900002CD90000FA
:1040A00010B53A4B040008009847394A80008258FE
:1040B00000236260220020002C3248302360A3726B
:1040C000E372237363722372E36123626362A36208
:1040D00023756375A375E375237663762374637420
:1040E000A374E374137053709370D370137153718E
:1040F0009371D371137253729372D3720C32137023
:1041000053709370D370137153719371D371137291
:1041100053729372D372137353739373D373211DBA
:10412000037043708370C370037143718371C371F3
:10413000037243728372C372037343738373C373D3
:1041400050300370A365A3674370E365E367837032
:104150002366CB6797310B700121303A6366D367D2
:1041600094321370143AA366136053750432E366F5
:1041700013609374043223671360D373636704324C
:10418000A13413601173237010BDC04605400000B8
:104190002CD90000F0B58FB00690B74B08000D0089
:1041A00014009847B54982008446B5480B6A1058F8
:1041B00003430B622B681C209B0708D42B68DB078A
:1041C00005D4B04BD25823689A4202D217200FB0C0
:1041D000F0BD63689A42F9D3230021001C332C31CF
:1041E00018688242F2D304339942F9D10022A649D9
:1041F00010009830205C002803D06046085C904294
:10420000E4DD0132082AF3D1002280209F49019287
:104210004004A618367C012E08D166468E5D964273
:10422000D4DB06009640019F374301970132042AF0
:10423000EFD12200A1321278002A04D08022019905
:10424000120111430191227A511E8A419200039278
:10425000627A012A02D10399114303916146002732
:10426000227B0792E27A0892884A525C02925E7A36
:10427000029AB242AAD919780F29A7D8F0205A7801
:1042800000050906014012040A4399780092481E6D
:104290008141C9010491D9780322481E8141C90096
:1042A00005911979B602481E8141602009010991E2
:1042B00099794901014058791040009A02430A4314
:1042C000C021D879890000020140E02011431A7A08
:1042D000C00112030240C020000111430640049AAD
:1042E0000E431643059A0A331643099A16430CAA3D
:1042F000BE500437082FBAD16246634B80269B5CC0
:1043000001200493002376020093E218170050372F
:104310003F78002F08D00499994200D856E737001B
:104320009F400099394300911F004137D25D002A18
:104330000CD00499994200D848E7022A00D083E0C3
:104340000222FF329A400099114300910133082B59
:10435000DBD130220721637E1B011340227E0A40FD
:1043600013438022059300235202E118097D00299E
:1043700008D00299994200DC28E71100994005987D
:10438000084305900133042BEFD1069B069A1D606C
:104390002300A0331B780AA91371A37A0AAA137009
:1043A00062463B4B27009E5C3A4B300098473000FA
:1043B0002600394B9847049B98369833E3185837B2
:1043C0000493049B9E4241D1079B089A1B0312024F
:1043D0001343019A13432B600423AA681A42FCD1A9
:1043E000FF232B71FB3BAA681A42FCD16B461B7B57
:1043F0006B710C9BEB600D9B2B61009BAB61274BA2
:10440000AA681A42FCD1059BEB631023AA681A42E2
:10441000FCD12368224A6B63AB681340FCD162680D
:1044200020492A64029A934224DA0A009A40A86832
:104430000242FCD19A00A218D0691A0010329200F0
:10444000AA1850600133EDE702007BE73378002BB8
:104450000DD001230BA98B700023CB702033FB18E8
:104460001B7838780B7001234B700F4B984701363F
:104470000437A6E70020AAE605400000000400403B
:1044800018D900002CD9000038D9000024D9000028
:1044900027D900002D7F0000A57E0000400002000B
:1044A00080000400000108000180000010B5024CEB
:1044B00003790068A04710BD354000007FB50C4B64
:1044C0000100180001AA70C870C2019A91420AD076
:1044D0005A68914209D09B6800208B4201D102307A
:1044E000C0B204B070BD0020FAE70120F8E7C04672
:1044F0003CD90000F0B5834B89B0060008001400D9
:104500000D0098471B2302AA137201335372937252
:10451000802306AF1B013B8080235B017B808023CF
:104520009B010190BB803560A378082B04D1019AD0
:104530001720D20700D4CEE0012233712B8805204A
:10454000134200D0C7E0EB7B1730DB0600D5C2E09A
:1045500002212B880B4000D0BDE0217C002908D02F
:1045600005A9CB70237E207D0B70674B8A704A7043
:104570009847237F002B0ED00022012305A9CA7083
:1045800024328B70A2184B701F33E31812781878FE
:104590005D4B0A709847019A5C4B5200196ABA5AEF
:1045A0000A431A62A278082A06D1019A186A511C95
:1045B00049007A5A02431A620820237803A90B7033
:1045C000019A02AB1B189F5C514B38009847514B26
:1045D000380098472389A288A1791A43A3780B430E
:1045E00013436278002A02D08022120113433168FB
:1045F000CA7B52B2002AFBDB2B80637B5A1E93419D
:10460000A27B9B00002A01D0012213433168CA7BA0
:1046100052B2002AFBDBFF222A71002B05D0316841
:10462000CA7B52B2002AFBDB6B71E37AA27A002BC1
:1046300001D010231A43237B002B01D020231A43DF
:104640003168CB7B5BB2002BFBDBAA713368DA7B72
:1046500052B2002AFBDB3279042A19D0082A3CD056
:104660001720002A37D1DA7B52B2002AFBDB238DD8
:104670002B823268D37B5BB2002BFBDB638D2B83F9
:104680003268D37B5BB2002BFBDBA38D6B8321E015
:10469000DA7B52B2002AFBDB230028331B782B7411
:1046A0003268D37B5BB2002BFBDB230029331B7802
:1046B0002B753268D37B5BB2002BFBDB23002A33E4
:1046C0001B782B763268D37B5BB2002BFBDB2B3461
:1046D00023786B76002009B0F0BDDA7B52B2002A55
:1046E000FBDBA36A2B613268D37B5BB2002BFBDB65
:1046F000E36AAB613268D37B5BB2002BFBDB236BDD
:10470000EB61E7E7BD4400000180000000040040C9
:104710002D7F0000A57E000010B50468E37B5BB22E
:10472000002BFBDB0379042B0CD0082B12D01720B5
:10473000002B0ED1172001290BD80C3192B2490061
:104740000A5305E01720012903D8D2B261180A766E
:10475000002010BD17200129FBD8063189000A511D
:10476000F6E7000010B50402034B5868034B00192C
:1047700098470528F8D010BDD40800203D3C000023
:10478000F0B5002585B0334F3A89954227D30023F1
:104790007D68BC7A561E99B28A424CD83F230021CC
:1047A0007B74531E96080193B14216D08B009BB2C6
:1047B0001C1DA2B294460124481C80B2019A934267
:1047C00004D09A01525DFF2A00D0002401339BB22D
:1047D0006345F3D1002C3BD0797405B0F0BD7B6804
:1047E000AE019B5D0193FF2B02D10435ADB2CAE748
:1047F000330040330393AB082C1DDBB2A4B2029309
:104800003B899C42F1D2013B9C4211D07B68A201C2
:104810009A5CFF2A0CD00199914209D1039A995DC3
:104820009A5CA0080C4BC0B2914200D10298984704
:104830000434A4B2E4E79E4208D09901695C88B2CE
:10484000FF2803D0A04201D27918CB720133A2E72E
:104850000100A9E7D40800206547000070B50D00ED
:104860008401054B4022586829000019034B9847E2
:104870000528F6D0012070BDD4080020BD3B000003
:1048800070B50D008401054B4022586829000019BD
:10489000034B98470528F6D070BDC046D4080020C9
:1048A000F93A000010B58401044B002259681C201D
:1048B0000919034B98470528F6D010BDD4080020ED
:1048C000093A0000F0B59BB000226B4669461A70A9
:1048D0000123244C4B70244B22705B68CA70DB06AA
:1048E0001B0F8B700A716846204B98470528FAD039
:1048F00002AD28001E4B9847AB8900272381062371
:10490000A3728023DB036360230052331F70194BB3
:104910009847637C1A203F2B20D006AE3200164BFE
:1049200023CB23C21B680AAD1360208929000138FC
:1049300080B2124B984738002B58325893420FD10F
:1049400004301028F8D1EB7C012B07D12A7C012AF6
:1049500004D16B7C002B01D1180022701BB0F0BD7C
:104960001A20FBE7D40800200040004181390000F4
:10497000E53C00008147000048D900005D48000088
:10498000F0B50026314D97B03000314B6E740424E1
:1049900098472B895A1E00929C4239D302AE0027B9
:1049A00032002B782F7001932A4B13CB13C21B6854
:1049B00006AC1360FF2140222000274B9847029B42
:1049C000677406937368A7746360B368A360F36841
:1049D000E3600123E3742374009BD817032318407A
:1049E000009BC0188010C0B2194B9847288921003D
:1049F000013880B2194B98472889194B013880B289
:104A000098476B461B792B70164B984717B0F0BD33
:104A1000009B9C4216D003231C4213D1A00806AF72
:104A2000C0B20B4B98474022FF210B4B38009847F0
:104A300039002000094B3E7098472000084B9847EA
:104A40000136B6B20134A4B2A3E7C046D4080020B0
:104A50006547000048D90000A3CD00008148000050
:104A6000A54800008147000030B50C00134991B003
:104A70000A781F23002A11D08A7A073B82420DD977
:104A80000B0052331B780E4D002B0AD08B7C8342D7
:104A900007D13C2216312000A8470023180011B08E
:104AA00030BD0918C87A074B694698473C2201A9CE
:104AB0000028F0D12000A8471A23EFE7D4080020EF
:104AC00091CD00005D480000F0B595B01D4B0291FE
:104AD00003923C210500984705AFC6B2390030006B
:104AE000194B98470190002810D13C212800174B02
:104AF000984789B22C00002904D13B78029A6C1C9B
:104B00001370A4B2039B5B199C4202DB019815B0A1
:104B1000F0BD3C2120000D4B98478FB2002F07D1EC
:104B20000136F6B205A93000074B9847002806D198
:104B300005AAD25D0299631BCA540134E1E70190D2
:104B4000E4E7C04661C90000694A00006DCA000080
:104B5000074B10B51C0052342278002A06D09A7CEC
:104B60009B18D87A034B984700232370002010BD70
:104B7000D4080020A5480000F0B53D4C85B023784E
:104B8000050003911F20002B57D0A37A0738AB42B2
:104B900053D9230052331B78002B04D0A37CAB42A3
:104BA00001D0344B98476319DB7A03211A001E00A9
:104BB00060680A408E43B718FFB2B901095CFF294B
:104BC00043D00132D2B2042AF5D19B0801931B02D3
:104BD000C318721C311D1F78D2B24033C9B2187885
:104BE000B84200D116000132D2B240339142F6D120
:104BF000637C9B0002931F4B9847BD421FD120004E
:104C00003C22163003991C4BA77498476B46210031
:104C100018891231194B98476B461B7AE719FB72BA
:104C20002300012252331A70124B9847144B0198FB
:104C300098476B461B796374002005B0F0BD2100D6
:104C4000B0B212310F4B9847E0E720003C220399A5
:104C5000094B1630A57498472100B8B21231074BA2
:104C600065199847EF72012352342370E4E7C04678
:104C7000D4080020514B000091CD00008148000075
:104C8000654700005D480000F0B593B000910192C7
:104C90003C21244B060098473C21C4B2224B3000F3
:104CA00098478DB203AF002D09D1019B3B2B06D94C
:104CB000009B751C1B783B70ADB2012309E03900E5
:104CC00020001A4B984700280ED1002DF0D0350057
:104CD0000300019A9219954208DB0020834203D019
:104CE00003A92000124B984713B0F0BD3C212800C7
:104CF0000D4B98478FB2002F0DD103A920000C4B0C
:104D000098470028F0D10134E4B203A92000074BF2
:104D100098470028E8D1009AAB1BD25C03ABDA5568
:104D20000135C9E761C900006DCA0000694A000089
:104D3000794B0000002303708370838083710381AB
:104D400043708372C3720373837343730374436149
:104D500083610377036243620385438583857047DC
:104D6000022382681A42FCD1026813430360704731
:104D7000F0B58F4C8F49A54427AD28008E4B98473E
:104D8000802301245B006B60FE3B2B764EAB1C70D6
:104D90001623AB66894B002649933A23FF336B44B5
:104DA0001C701723EB66864B864F4A939D235B004E
:104DB0006B441C7014232B67834B2A004B933C23BA
:104DC000FF336B441C7015236B67804B79494C9300
:104DD0003E23FF336B441C7038007D4BEE612C7515
:104DE0002E626C756E62AC75AE62EC75AE7250ADD3
:104DF00098473868774B9847280077496E4B984713
:104E000080235B006B60FE3B2B7676AB1C700A2325
:104E1000AB65724B724FAB67DA23FF336B441C7088
:104E20000B23EB656F4B2A00EB67E223FF336B44E8
:104E30001C706949664B3800EE612C752E626C75EA
:104E4000AE7279AD98473868624B9847664928003A
:104E5000594B98470623EB72FA336B609FAB1C707B
:104E6000624B2C766B441C700323614C2A005E4914
:104E7000EE61AE65AB720436554B2000AE679847C5
:104E80002068544B98471F20E021226893683342E2
:104E9000FCD15379834305D0402B05D0202BF5D18D
:104EA0001171F3E7402353716846524EB0476A468A
:104EB000042393703C33937100231370FF22293332
:104EC0006B441A706A4603239372023B13741222D6
:104ED0000592494A494C06926A4613771322089272
:104EE000474A484909926A462000474D5370A847EF
:104EF0002368DA7B52B2002AFBDB022219880DAC50
:104F00000A431A802000B0470423A3703C33A371E6
:104F10000023FF2223705D336B441A70D73A62611D
:104F20003A4A0323A2612922394F2262394AA372E5
:104F3000023B237423776262374922003800637092
:104F4000A8473B68DA7B52B2002AFBDB02221988B1
:104F50001AAC0A431A802000B0470423A3703C33E4
:104F6000A3710023FF22237091336B441A70D53A4A
:104F700062612A4A0323A2612B22294E2262294A16
:104F8000A372023B23742377626227492200300018
:104F90006370A8473368DA7B52B2002AFBDB022237
:104FA00019880A431A80A3239B009D44F0BDC04684
:104FB00074FDFFFF00200042A14000000500160024
:104FC000050017004C0E0020050014000500150018
:104FD00095410000614D00000024004204000A00D9
:104FE000340E002004000B0000280042850200005F
:104FF000540E0020354D0000040012002C0E00203D
:1050000004001300002C0042F544000004002800B6
:10501000440E0020040029000030004204002A0051
:105020003C0E002004002B000034004210B51C4B45
:1050300004001B780A00002B04D110000521194B35
:105040009847C2B2184B1A550B2C0FD8200007F006
:1050500069FC06090E121416181A1D2022240021BC
:10506000124801E000211248124B984710BD002160
:105070001148124BF9E70121F2E70121F3E7012181
:10508000F6E70221ECE700210D48F2E700210D4888
:10509000EFE70321E4E70121F6E70121F7E7C04646
:1050A000380B002061C90000280900204C0E0020A8
:1050B000340E0020AD440000440E002019470000CB
:1050C0002C0E00203C0E002010B5FF21034B0400E5
:1050D0009847FF22024B1A5510BDC0462D500000C4
:1050E0002809002010B50021034B04009847002236
:1050F000024B1A5510BDC0462D5000002809002053
:10510000F8B503240E00013844430B780A4AE5B28F
:1051100013550A4F28000978B847074A73781419BD
:105120006370681C7178C0B2B847B3780235A37059
:10513000B178E8B2B847F8BD280900202D5000002A
:10514000034B1B685A88D20501D401221A7070479C
:105150003409002007B50C4B0C4A9A600C4A5A607F
:105160005A78D209FCD1032301A90B702220094BE4
:105170009847094B222098478023084A1B03116A4D
:105180000B43136207BDC046000C0040030400003F
:10519000030603002D7F0000A57E000000040040F0
:1051A00010B5124B86B098471422114B11491A8042
:1051B0001148124B9847011E00D0FEE717236B449D
:1051C00003930723032002932133009301900B00E4
:1051D00002220B4CA047002800D0FEE70120094B1B
:1051E0009847002800D0FEE706B010BD55510000DA
:1051F0005C0E00209DC20000C402002089A50000B2
:1052000089A7000041A8000070B50A4D00202C7944
:10521000E4B2012C08D16888074A80B22100074B0C
:105220009847002801D1287170BD012800D9FEE7F8
:105230002000F9E75C0E002041510000B1A80000F9
:1052400070B5094B00209847FA21084C89000500E9
:10525000A047074B074918602800A0470522064BC6
:105260001860064B1A6070BD1D7E000061C9000009
:10527000D002002040420F00D402002010E000E0E5
:1052800030B580240021074B64021A68064B0138B0
:1052900000D230BD002AFAD05A6099601D682542BC
:1052A000FCD0F4E7D002002010E000E0F0B50024CC
:1052B00089B0009201933F23002600272500069025
:1052C00007910393039A134B012000219847B619C5
:1052D0007F41069B079A03400A40049605971343B3
:1052E00003D0012333431E00059F019BBB4209D815
:1052F00002D1009BB34205D8009A019BB61A9F4188
:1053000004430D43039B5A1E0392DBD22000290065
:1053100009B0F0BD65CC000010B5490804000023B9
:105320004020A14201D210BD0300581C091B80B2CD
:105330008C42F9D94020FF2BF5D813800020F2E7EA
:10534000F0B585B01E000AAB0D00197803004B4381
:1053500003924027AB4217D8002E18D10200330029
:1053600008001B4C3100A0472A0001003300194CF3
:105370003000A04700220123121A8B41140C18049C
:1053800004430027039B1C80380005B0F0BD0024B7
:10539000012EF6D10A00230021000D4EB0470090E7
:1053A00001910B000200210028000A4CA047802335
:1053B00006009B019842E7D8009A019B690FE8001C
:1053C000A047F400041BE4B264033443D9E7C046A9
:1053D000BDCC0000AD52000037B50D4C0500237860
:1053E000002B01D000290CD001A91320094B0D700E
:1053F00098471320084B98470123002065702370BD
:105400003EBD63780800AB42FAD01D20F8E7C046E5
:10541000BC0900202D7F0000A57E0000394A030052
:1054200000B50800934233D007D8374A934214D0CE
:10543000364A93421FD0002317E0354A93423AD0B0
:10544000344A934244D0344A9342F4D1002303298E
:105450000BD807F067FA502A2C2E0023032904D812
:1054600007F060FA430205072C4B180000BD2C4BD7
:10547000FBE72C4BF9E700230329F6D807F052FA93
:1054800037020406284BF0E7284BEEE7284BECE701
:1054900000230329E9D807F045FA2C020406254B1E
:1054A000E3E7254BE1E7254BDFE7254BDDE7254B20
:1054B000DBE7254BD9E700230329D6D807F032FADA
:1054C0001D020406214BD0E7214BCEE7214BCCE750
:1054D00000230329C9D807F025FA120204061E4B3F
:1054E000C3E71E4BC1E71E4BBFE71E4BBDE70323BF
:1054F000BBE71D4BB9E71D4BB7E71D4BB5E71D4B90
:10550000B3E7C0460010004200080042000C004211
:1055100000180042001C0042001400420300050075
:1055200003000600030007000300010003001E0043
:1055300003001F000300090003000A0003000B0022
:1055400003001100030012000300130003000D000C
:1055500003000E0003000F000300170003001800F3
:1055600003001900030004000300080003001000FA
:1055700003000C000300160070B586B06946094BA5
:105580006A4670CB70C170CB70C10023990051582E
:10559000814202D1D8B206B070BD0133062BF5D1DD
:1055A0000020F8E758D90000F0B5070093B09E4BF3
:1055B000396008001400049198470122049B0600FA
:1055C0001B680520134200D00AE1049B17301D68B8
:1055D00002231D4000D003E1F3181B38984003005C
:1055E000924A1436116AF6B20B43136223002D332C
:1055F00002931B780CA90B7030008D4B984730003C
:105600008C4B9847029B290018788B4B9847E37A7C
:1056100008267B71631DDB7FBB71A31DDB7FFB71E4
:10562000E37E3B72237F7B723B68039318007E4BC3
:1056300098470EAB1D80238A143002938023029A70
:10564000DB019A4214D008D8802310269B019A428D
:1056500000D1C8E0102600250AE0C023029ADB0131
:105660009A4200D1BEE0802303261B029A42F1D168
:1056700023680693E368079363690893237E09937D
:10568000E31DDB7F0A93636805932300059A0833C3
:10569000002A00D1A9E080220599520591420ED13D
:1056A000DB7F002B0BD1654BC0B2256A98470EAA51
:1056B0000100634B28009847002800D090E0637EEB
:1056C000002B02D0A37E039A93730EAE3388039A05
:1056D0009381079A069B1343089A1343059A134331
:1056E000029A1343099A120213430A9A5207134368
:1056F00022000832D27F002A01D104321343627E95
:10570000217F920249020A43617FE07A09020A433B
:10571000611DC97F49040A43A11DC97F09040A43C9
:10572000A17A01430A432189FF2900D173E0802037
:10573000400403430A4321002C310978002903D196
:1057400040498978890701D580210B433868C169B0
:105750000029FCD103994A603968CA69002AFCD142
:1057600003990DAD0B6080232B70236B6A700E9331
:10577000636BEA707360A36BAA70B360E36B140091
:10578000F360A300F058E1B2002802D104982E4B38
:105790009847431C05D02870000CC0B229002B4B41
:1057A00098470134042CECD13B0000243033FC85B5
:1057B000FC603C617C61BC61FC613C62BC627C62FF
:1057C000BC859C701C705C70DC703868164B984708
:1057D00005001F4B1F49984720001F4BAD00EF509D
:1057E00013B0F0BD0826012542E7DB7F002B07D070
:1057F0002B000096A16A206A0EAA184DA8475BE705
:10580000236AC0B20B930D4B9847009601002B0002
:105810000EAA0B98F1E7E17E002900D18BE78021E9
:10582000C9040B4387E7C0467955000000040040D7
:105830002D7F0000A57E0000D9530000497F0000A5
:1058400019530000002000411D5400000180000099
:10585000DD5A000071590000640E00204153000021
:10586000F7B5050003680E0001930B4B170098472E
:10587000EC8D0A4BA4B2002C02D098470520FEBD47
:10588000EF8598470523AE62019A33352B70043BB0
:1058900093752000F3E7C046F577000029780000F3
:1058A000F8B50400104B17000E0005689847A28D4C
:1058B0000E4B002A02D098470520F8BDA7859847CF
:1058C00023000522323366621A700423AB75237AF3
:1058D000002B01D02023AB750020637A8342ECD0EB
:1058E0000823AB75E9E7C046F5770000297800008A
:1058F000931C9B00C3185960012393401A00303059
:10590000037813430370704710B50122014B984789
:1059100010BDC046A158000010B51723002A06D0BC
:10592000C4790533002C02D0024B984703001800BD
:1059300010BDC0466158000010B51723002A06D0DC
:1059400084790533002C02D0024B984703001800DD
:1059500010BDC046A1580000002903D0012905D080
:10596000172002E032300078C0B270473330FAE7D7
:10597000F8B5584B8000C4582568EB69002BFCD162
:105980002B7EAF7D1F40230030331A785E780123D1
:1059900016401F4219D0E28D002A00D172E0A26A9F
:1059A000511C1378A1626179DBB2012964D09BB2EA
:1059B000DB05DB0D2B85E38D013B9BB2E385002BE3
:1059C00003D101332B750133AB7502231F4209D07C
:1059D0002B752300002233331A70F30702D5200001
:1059E000E368984704231F4227D0A28D002A00D1E4
:1059F0006DE06B8BDBB21A0746D43F22134045D0D3
:105A000002221A2113420FD104221E2113420BD16C
:105A100001221321134207D110224221134203D144
:105A20002022134204D041212300323319706A83AB
:105A3000730702D520006369984710231F4206D0E0
:105A40002B752B761E4202D02000E3699847202355
:105A50001F4206D02B752B76330702D52000A36991
:105A6000984708231F4206D02B752B76B30602D524
:105A7000236A20009847F8BD5178023209020B438F
:105A8000A26295E72B75A0E73722B7E72B8D616AF5
:105A9000DB05DB0DDAB20A70626A511C6162617962
:105AA000012904D11B0A5370636A01336362A38D19
:105AB000013B9BB2A385002BBFD104222A75220093
:105AC00032321370B307B8D520002369B4E72B75C1
:105AD000B3E7C046640E002070470000F0B5094CE3
